{
  "_format": "hh-sol-artifact-1",
  "contractName": "dMarket",
  "sourceName": "contracts/dMarket.sol",
  "abi": [
    {
      "inputs": [],
      "stateMutability": "nonpayable",
      "type": "constructor"
    },
    {
      "anonymous": false,
      "inputs": [
        {
          "indexed": true,
          "internalType": "address",
          "name": "owner",
          "type": "address"
        },
        {
          "indexed": true,
          "internalType": "address",
          "name": "approved",
          "type": "address"
        },
        {
          "indexed": true,
          "internalType": "uint256",
          "name": "tokenId",
          "type": "uint256"
        }
      ],
      "name": "Approval",
      "type": "event"
    },
    {
      "anonymous": false,
      "inputs": [
        {
          "indexed": true,
          "internalType": "address",
          "name": "owner",
          "type": "address"
        },
        {
          "indexed": true,
          "internalType": "address",
          "name": "operator",
          "type": "address"
        },
        {
          "indexed": false,
          "internalType": "bool",
          "name": "approved",
          "type": "bool"
        }
      ],
      "name": "ApprovalForAll",
      "type": "event"
    },
    {
      "anonymous": false,
      "inputs": [
        {
          "indexed": true,
          "internalType": "address",
          "name": "_buyer",
          "type": "address"
        },
        {
          "indexed": true,
          "internalType": "uint256",
          "name": "_tokenId",
          "type": "uint256"
        },
        {
          "indexed": false,
          "internalType": "uint256",
          "name": "_price",
          "type": "uint256"
        }
      ],
      "name": "BuyNFT",
      "type": "event"
    },
    {
      "anonymous": false,
      "inputs": [
        {
          "indexed": true,
          "internalType": "uint256",
          "name": "_tokenId",
          "type": "uint256"
        },
        {
          "indexed": false,
          "internalType": "string",
          "name": "_tokenURI",
          "type": "string"
        },
        {
          "indexed": true,
          "internalType": "address",
          "name": "_owner",
          "type": "address"
        },
        {
          "indexed": false,
          "internalType": "uint256",
          "name": "_price",
          "type": "uint256"
        }
      ],
      "name": "CreateNFT",
      "type": "event"
    },
    {
      "anonymous": false,
      "inputs": [
        {
          "indexed": true,
          "internalType": "address",
          "name": "from",
          "type": "address"
        },
        {
          "indexed": true,
          "internalType": "address",
          "name": "to",
          "type": "address"
        },
        {
          "indexed": true,
          "internalType": "uint256",
          "name": "tokenId",
          "type": "uint256"
        }
      ],
      "name": "Transfer",
      "type": "event"
    },
    {
      "anonymous": false,
      "inputs": [
        {
          "indexed": true,
          "internalType": "address",
          "name": "_from",
          "type": "address"
        },
        {
          "indexed": true,
          "internalType": "address",
          "name": "_to",
          "type": "address"
        },
        {
          "indexed": true,
          "internalType": "uint256",
          "name": "_tokenId",
          "type": "uint256"
        }
      ],
      "name": "TransferNFT",
      "type": "event"
    },
    {
      "inputs": [
        {
          "internalType": "address",
          "name": "to",
          "type": "address"
        },
        {
          "internalType": "uint256",
          "name": "tokenId",
          "type": "uint256"
        }
      ],
      "name": "approve",
      "outputs": [],
      "stateMutability": "nonpayable",
      "type": "function"
    },
    {
      "inputs": [
        {
          "internalType": "address",
          "name": "owner",
          "type": "address"
        }
      ],
      "name": "balanceOf",
      "outputs": [
        {
          "internalType": "uint256",
          "name": "",
          "type": "uint256"
        }
      ],
      "stateMutability": "view",
      "type": "function"
    },
    {
      "inputs": [
        {
          "internalType": "uint256",
          "name": "_tokenId",
          "type": "uint256"
        }
      ],
      "name": "buyNFT",
      "outputs": [],
      "stateMutability": "payable",
      "type": "function"
    },
    {
      "inputs": [
        {
          "internalType": "string",
          "name": "_tokenURI",
          "type": "string"
        },
        {
          "internalType": "uint256",
          "name": "_price",
          "type": "uint256"
        }
      ],
      "name": "createNFT",
      "outputs": [],
      "stateMutability": "payable",
      "type": "function"
    },
    {
      "inputs": [
        {
          "internalType": "uint256",
          "name": "tokenId",
          "type": "uint256"
        }
      ],
      "name": "getApproved",
      "outputs": [
        {
          "internalType": "address",
          "name": "",
          "type": "address"
        }
      ],
      "stateMutability": "view",
      "type": "function"
    },
    {
      "inputs": [],
      "name": "getNFTCount",
      "outputs": [
        {
          "internalType": "uint256",
          "name": "",
          "type": "uint256"
        }
      ],
      "stateMutability": "view",
      "type": "function"
    },
    {
      "inputs": [
        {
          "internalType": "address",
          "name": "owner",
          "type": "address"
        },
        {
          "internalType": "address",
          "name": "operator",
          "type": "address"
        }
      ],
      "name": "isApprovedForAll",
      "outputs": [
        {
          "internalType": "bool",
          "name": "",
          "type": "bool"
        }
      ],
      "stateMutability": "view",
      "type": "function"
    },
    {
      "inputs": [
        {
          "internalType": "uint256",
          "name": "_tokenId",
          "type": "uint256"
        },
        {
          "internalType": "uint256",
          "name": "_price",
          "type": "uint256"
        }
      ],
      "name": "markNFTForSale",
      "outputs": [],
      "stateMutability": "nonpayable",
      "type": "function"
    },
    {
      "inputs": [],
      "name": "name",
      "outputs": [
        {
          "internalType": "string",
          "name": "",
          "type": "string"
        }
      ],
      "stateMutability": "view",
      "type": "function"
    },
    {
      "inputs": [
        {
          "internalType": "uint256",
          "name": "",
          "type": "uint256"
        }
      ],
      "name": "nfts",
      "outputs": [
        {
          "internalType": "uint256",
          "name": "tokenId",
          "type": "uint256"
        },
        {
          "internalType": "uint256",
          "name": "price",
          "type": "uint256"
        },
        {
          "internalType": "address payable",
          "name": "owner",
          "type": "address"
        },
        {
          "internalType": "bool",
          "name": "isForSale",
          "type": "bool"
        }
      ],
      "stateMutability": "view",
      "type": "function"
    },
    {
      "inputs": [],
      "name": "owner",
      "outputs": [
        {
          "internalType": "address payable",
          "name": "",
          "type": "address"
        }
      ],
      "stateMutability": "view",
      "type": "function"
    },
    {
      "inputs": [
        {
          "internalType": "uint256",
          "name": "tokenId",
          "type": "uint256"
        }
      ],
      "name": "ownerOf",
      "outputs": [
        {
          "internalType": "address",
          "name": "",
          "type": "address"
        }
      ],
      "stateMutability": "view",
      "type": "function"
    },
    {
      "inputs": [
        {
          "internalType": "address",
          "name": "from",
          "type": "address"
        },
        {
          "internalType": "address",
          "name": "to",
          "type": "address"
        },
        {
          "internalType": "uint256",
          "name": "tokenId",
          "type": "uint256"
        }
      ],
      "name": "safeTransferFrom",
      "outputs": [],
      "stateMutability": "nonpayable",
      "type": "function"
    },
    {
      "inputs": [
        {
          "internalType": "address",
          "name": "from",
          "type": "address"
        },
        {
          "internalType": "address",
          "name": "to",
          "type": "address"
        },
        {
          "internalType": "uint256",
          "name": "tokenId",
          "type": "uint256"
        },
        {
          "internalType": "bytes",
          "name": "_data",
          "type": "bytes"
        }
      ],
      "name": "safeTransferFrom",
      "outputs": [],
      "stateMutability": "nonpayable",
      "type": "function"
    },
    {
      "inputs": [
        {
          "internalType": "address",
          "name": "operator",
          "type": "address"
        },
        {
          "internalType": "bool",
          "name": "approved",
          "type": "bool"
        }
      ],
      "name": "setApprovalForAll",
      "outputs": [],
      "stateMutability": "nonpayable",
      "type": "function"
    },
    {
      "inputs": [
        {
          "internalType": "bytes4",
          "name": "interfaceId",
          "type": "bytes4"
        }
      ],
      "name": "supportsInterface",
      "outputs": [
        {
          "internalType": "bool",
          "name": "",
          "type": "bool"
        }
      ],
      "stateMutability": "view",
      "type": "function"
    },
    {
      "inputs": [],
      "name": "symbol",
      "outputs": [
        {
          "internalType": "string",
          "name": "",
          "type": "string"
        }
      ],
      "stateMutability": "view",
      "type": "function"
    },
    {
      "inputs": [
        {
          "internalType": "uint256",
          "name": "tokenId",
          "type": "uint256"
        }
      ],
      "name": "tokenURI",
      "outputs": [
        {
          "internalType": "string",
          "name": "",
          "type": "string"
        }
      ],
      "stateMutability": "view",
      "type": "function"
    },
    {
      "inputs": [
        {
          "internalType": "address",
          "name": "from",
          "type": "address"
        },
        {
          "internalType": "address",
          "name": "to",
          "type": "address"
        },
        {
          "internalType": "uint256",
          "name": "tokenId",
          "type": "uint256"
        }
      ],
      "name": "transferFrom",
      "outputs": [],
      "stateMutability": "nonpayable",
      "type": "function"
    },
    {
      "inputs": [
        {
          "internalType": "address",
          "name": "_to",
          "type": "address"
        },
        {
          "internalType": "uint256",
          "name": "_tokenId",
          "type": "uint256"
        }
      ],
      "name": "transferNFT",
      "outputs": [],
      "stateMutability": "nonpayable",
      "type": "function"
    }
  ],
  "bytecode": "0x60806040526001600755662386f26fc100006009553480156200002157600080fd5b5060408051808201825260078152661913585c9ad95d60ca1b602080830191825283518085019094526004845263111352d560e21b9084015281519192916200006d916000916200009e565b508051620000839060019060208401906200009e565b5050600880546001600160a01b031916331790555062000181565b828054620000ac9062000144565b90600052602060002090601f016020900481019282620000d057600085556200011b565b82601f10620000eb57805160ff19168380011785556200011b565b828001600101855582156200011b579182015b828111156200011b578251825591602001919060010190620000fe565b50620001299291506200012d565b5090565b5b808211156200012957600081556001016200012e565b600181811c908216806200015957607f821691505b602082108114156200017b57634e487b7160e01b600052602260045260246000fd5b50919050565b611efd80620001916000396000f3fe60806040526004361061011f5760003560e01c806354279637116100a057806395d89b411161006457806395d89b4114610380578063a22cb46514610395578063b88d4fde146103b5578063c87b56dd146103d5578063e985e9c5146103f55761011f565b806354279637146102dd5780636352211e1461030057806370a08231146103205780638da5cb5b1461034057806394ab67fe146103605761011f565b806323b872dd116100e757806323b872dd146101f5578063265aa62114610215578063268291551461029757806342842e0e146102aa57806351ed8288146102ca5761011f565b806301ffc9a71461012457806306fdde0314610159578063081812fc1461017b578063092f6acc146101b3578063095ea7b3146101d5575b600080fd5b34801561013057600080fd5b5061014461013f366004611b5c565b61043e565b60405190151581526020015b60405180910390f35b34801561016557600080fd5b5061016e610492565b6040516101509190611cbb565b34801561018757600080fd5b5061019b610196366004611bea565b610524565b6040516001600160a01b039091168152602001610150565b3480156101bf57600080fd5b506101d36101ce366004611c02565b6105b1565b005b3480156101e157600080fd5b506101d36101f0366004611b33565b6106a0565b34801561020157600080fd5b506101d3610210366004611a45565b6107b6565b34801561022157600080fd5b50610266610230366004611bea565b600a602052600090815260409020805460018201546002909201549091906001600160a01b03811690600160a01b900460ff1684565b604051610150949392919093845260208401929092526001600160a01b031660408301521515606082015260800190565b6101d36102a5366004611b94565b6107e7565b3480156102b657600080fd5b506101d36102c5366004611a45565b610955565b6101d36102d8366004611bea565b610970565b3480156102e957600080fd5b506102f2610bd6565b604051908152602001610150565b34801561030c57600080fd5b5061019b61031b366004611bea565b610bec565b34801561032c57600080fd5b506102f261033b3660046119f9565b610c63565b34801561034c57600080fd5b5060085461019b906001600160a01b031681565b34801561036c57600080fd5b506101d361037b366004611b33565b610cea565b34801561038c57600080fd5b5061016e610dfb565b3480156103a157600080fd5b506101d36103b0366004611af9565b610e0a565b3480156103c157600080fd5b506101d36103d0366004611a80565b610ed0565b3480156103e157600080fd5b5061016e6103f0366004611bea565b610f08565b34801561040157600080fd5b50610144610410366004611a13565b6001600160a01b03918216600090815260056020908152604080832093909416825291909152205460ff1690565b60006001600160e01b031982166380ac58cd60e01b148061046f57506001600160e01b03198216635b5e139f60e01b145b8061048a57506301ffc9a760e01b6001600160e01b03198316145b90505b919050565b6060600080546104a190611e02565b80601f01602080910402602001604051908101604052809291908181526020018280546104cd90611e02565b801561051a5780601f106104ef5761010080835404028352916020019161051a565b820191906000526020600020905b8154815290600101906020018083116104fd57829003601f168201915b5050505050905090565b600061052f82611080565b6105955760405162461bcd60e51b815260206004820152602c60248201527f4552433732313a20617070726f76656420717565727920666f72206e6f6e657860448201526b34b9ba32b73a103a37b5b2b760a11b60648201526084015b60405180910390fd5b506000908152600460205260409020546001600160a01b031690565b6105ba82611080565b6105fb5760405162461bcd60e51b815260206004820152601260248201527113919508191bd95cc81b9bdd08195e1a5cdd60721b604482015260640161058c565b6000828152600a60205260409020600201546001600160a01b031633146106735760405162461bcd60e51b815260206004820152602660248201527f596f752063616e206e6f74206d61726b206f7468657273204e465420666f722060448201526573616c652e2160d01b606482015260840161058c565b6000918252600a60205260409091206001810191909155600201805460ff60a01b1916600160a01b179055565b60006106ab82610bec565b9050806001600160a01b0316836001600160a01b031614156107195760405162461bcd60e51b815260206004820152602160248201527f4552433732313a20617070726f76616c20746f2063757272656e74206f776e656044820152603960f91b606482015260840161058c565b336001600160a01b038216148061073557506107358133610410565b6107a75760405162461bcd60e51b815260206004820152603860248201527f4552433732313a20617070726f76652063616c6c6572206973206e6f74206f7760448201527f6e6572206e6f7220617070726f76656420666f7220616c6c0000000000000000606482015260840161058c565b6107b1838361109d565b505050565b6107c0338261110b565b6107dc5760405162461bcd60e51b815260040161058c90611d42565b6107b18383836111f1565b60095434146108385760405162461bcd60e51b815260206004820152601e60248201527f596f75206d7573742070617920746865206c697374696e672070726963650000604482015260640161058c565b61084433600754611391565b610850600754836113af565b60408051608081018252600754808252602080830185815233848601908152600060608601818152948152600a9093528583209451855590516001850155516002909301805492511515600160a01b026001600160a81b03199093166001600160a01b039485161792909217909155600854925192909116913480156108fc0292909190818181858888f193505050501580156108f1573d6000803e3d6000fd5b506007805490600061090283611e3d565b9091555050600754339061091890600190611dbf565b7f6bec5b594585f8c2d37d991853d8f5907b3cdd2f6bf5c0eac89f8246cc5000998484604051610949929190611cce565b60405180910390a35050565b6107b183838360405180602001604052806000815250610ed0565b61097981611080565b6109ba5760405162461bcd60e51b815260206004820152601260248201527113919508191bd95cc81b9bdd08195e1a5cdd60721b604482015260640161058c565b6000818152600a6020526040902060020154600160a01b900460ff16610a185760405162461bcd60e51b81526020600482015260136024820152724e4654206973206e6f7420666f722073616c6560681b604482015260640161058c565b6000818152600a60205260409020600101543414610a8e5760405162461bcd60e51b815260206004820152602d60248201527f5072696365206d75737420626520657175616c20746f2074686520707269636560448201526c1037b3103a3432903a37b5b2b760991b606482015260840161058c565b6000818152600a60205260409020600201546001600160a01b0316331415610af85760405162461bcd60e51b815260206004820152601e60248201527f596f752063616e206e6f742062757920796f7572206f776e204e46542e210000604482015260640161058c565b6000818152600a6020526040902060020154610b1e906001600160a01b031633836111f1565b6000818152600a60205260408082206002015490516001600160a01b03909116913480156108fc02929091818181858888f19350505050158015610b66573d6000803e3d6000fd5b506000818152600a60209081526040918290206002810180546001600160a81b0319163360ff60a01b198116919091179091556001909101549251928352839290917f5d963241241cfe9e161d13500d628058954b3febfde03e4b1f4071370e72fe2b910160405180910390a350565b60006001600754610be79190611dbf565b905090565b6000818152600260205260408120546001600160a01b03168061048a5760405162461bcd60e51b815260206004820152602960248201527f4552433732313a206f776e657220717565727920666f72206e6f6e657869737460448201526832b73a103a37b5b2b760b91b606482015260840161058c565b60006001600160a01b038216610cce5760405162461bcd60e51b815260206004820152602a60248201527f4552433732313a2062616c616e636520717565727920666f7220746865207a65604482015269726f206164647265737360b01b606482015260840161058c565b506001600160a01b031660009081526003602052604090205490565b6000818152600a60205260409020600201546001600160a01b03163314610d795760405162461bcd60e51b815260206004820152603d60248201527f4e465420646f6573206e6f7420657869737473206f7220796f7520646f6e742060448201527f68617665207065726d697373696f6e20746f207472616e736665722e21000000606482015260840161058c565b6000818152600a6020526040902060020154610d9f906001600160a01b031683836111f1565b6000818152600a602052604080822060020180546001600160a01b0319166001600160a01b0386169081179091559051839233917fa64cdec004d2859ac7547f4ed3252f53d0fa0b8dcbcc93a47894eee072714b629190a45050565b6060600180546104a190611e02565b6001600160a01b038216331415610e635760405162461bcd60e51b815260206004820152601960248201527f4552433732313a20617070726f766520746f2063616c6c657200000000000000604482015260640161058c565b3360008181526005602090815260408083206001600160a01b0387168085529252909120805460ff1916841515179055906001600160a01b03167f17307eab39ab6107e8899845ad3d59bd9653f200f220920489ca2b5937696c3183604051610949911515815260200190565b610eda338361110b565b610ef65760405162461bcd60e51b815260040161058c90611d42565b610f028484848461143a565b50505050565b6060610f1382611080565b610f795760405162461bcd60e51b815260206004820152603160248201527f45524337323155524953746f726167653a2055524920717565727920666f72206044820152703737b732bc34b9ba32b73a103a37b5b2b760791b606482015260840161058c565b60008281526006602052604081208054610f9290611e02565b80601f0160208091040260200160405190810160405280929190818152602001828054610fbe90611e02565b801561100b5780601f10610fe05761010080835404028352916020019161100b565b820191906000526020600020905b815481529060010190602001808311610fee57829003601f168201915b50505050509050600061102960408051602081019091526000815290565b905080516000141561103d5750905061048d565b81511561106f578082604051602001611057929190611c4f565b6040516020818303038152906040529250505061048d565b6110788461146d565b949350505050565b6000908152600260205260409020546001600160a01b0316151590565b600081815260046020526040902080546001600160a01b0319166001600160a01b03841690811790915581906110d282610bec565b6001600160a01b03167f8c5be1e5ebec7d5bd14f71427d1e84f3dd0314c0f7b2291e5b200ac8c7c3b92560405160405180910390a45050565b600061111682611080565b6111775760405162461bcd60e51b815260206004820152602c60248201527f4552433732313a206f70657261746f7220717565727920666f72206e6f6e657860448201526b34b9ba32b73a103a37b5b2b760a11b606482015260840161058c565b600061118283610bec565b9050806001600160a01b0316846001600160a01b031614806111bd5750836001600160a01b03166111b284610524565b6001600160a01b0316145b8061107857506001600160a01b0380821660009081526005602090815260408083209388168352929052205460ff16611078565b826001600160a01b031661120482610bec565b6001600160a01b03161461126c5760405162461bcd60e51b815260206004820152602960248201527f4552433732313a207472616e73666572206f6620746f6b656e2074686174206960448201526839903737ba1037bbb760b91b606482015260840161058c565b6001600160a01b0382166112ce5760405162461bcd60e51b8152602060048201526024808201527f4552433732313a207472616e7366657220746f20746865207a65726f206164646044820152637265737360e01b606482015260840161058c565b6112d960008261109d565b6001600160a01b0383166000908152600360205260408120805460019290611302908490611dbf565b90915550506001600160a01b0382166000908152600360205260408120805460019290611330908490611d93565b909155505060008181526002602052604080822080546001600160a01b0319166001600160a01b0386811691821790925591518493918716917fddf252ad1be2c89b69c2b068fc378daa952ba7f163c4a11628f55a4df523b3ef91a4505050565b6113ab828260405180602001604052806000815250611545565b5050565b6113b882611080565b61141b5760405162461bcd60e51b815260206004820152602e60248201527f45524337323155524953746f726167653a2055524920736574206f66206e6f6e60448201526d32bc34b9ba32b73a103a37b5b2b760911b606482015260840161058c565b600082815260066020908152604090912082516107b1928401906118d3565b6114458484846111f1565b61145184848484611578565b610f025760405162461bcd60e51b815260040161058c90611cf0565b606061147882611080565b6114dc5760405162461bcd60e51b815260206004820152602f60248201527f4552433732314d657461646174613a2055524920717565727920666f72206e6f60448201526e3732bc34b9ba32b73a103a37b5b2b760891b606482015260840161058c565b60006114f360408051602081019091526000815290565b90506000815111611513576040518060200160405280600081525061153e565b8061151d84611685565b60405160200161152e929190611c4f565b6040516020818303038152906040525b9392505050565b61154f83836117a0565b61155c6000848484611578565b6107b15760405162461bcd60e51b815260040161058c90611cf0565b60006001600160a01b0384163b1561167a57604051630a85bd0160e11b81526001600160a01b0385169063150b7a02906115bc903390899088908890600401611c7e565b602060405180830381600087803b1580156115d657600080fd5b505af1925050508015611606575060408051601f3d908101601f1916820190925261160391810190611b78565b60015b611660573d808015611634576040519150601f19603f3d011682016040523d82523d6000602084013e611639565b606091505b5080516116585760405162461bcd60e51b815260040161058c90611cf0565b805181602001fd5b6001600160e01b031916630a85bd0160e11b149050611078565b506001949350505050565b6060816116aa57506040805180820190915260018152600360fc1b602082015261048d565b8160005b81156116d457806116be81611e3d565b91506116cd9050600a83611dab565b91506116ae565b60008167ffffffffffffffff8111156116fd57634e487b7160e01b600052604160045260246000fd5b6040519080825280601f01601f191660200182016040528015611727576020820181803683370190505b5090505b84156110785761173c600183611dbf565b9150611749600a86611e58565b611754906030611d93565b60f81b81838151811061177757634e487b7160e01b600052603260045260246000fd5b60200101906001600160f81b031916908160001a905350611799600a86611dab565b945061172b565b6001600160a01b0382166117f65760405162461bcd60e51b815260206004820181905260248201527f4552433732313a206d696e7420746f20746865207a65726f2061646472657373604482015260640161058c565b6117ff81611080565b1561184c5760405162461bcd60e51b815260206004820152601c60248201527f4552433732313a20746f6b656e20616c7265616479206d696e74656400000000604482015260640161058c565b6001600160a01b0382166000908152600360205260408120805460019290611875908490611d93565b909155505060008181526002602052604080822080546001600160a01b0319166001600160a01b03861690811790915590518392907fddf252ad1be2c89b69c2b068fc378daa952ba7f163c4a11628f55a4df523b3ef908290a45050565b8280546118df90611e02565b90600052602060002090601f0160209004810192826119015760008555611947565b82601f1061191a57805160ff1916838001178555611947565b82800160010185558215611947579182015b8281111561194757825182559160200191906001019061192c565b50611953929150611957565b5090565b5b808211156119535760008155600101611958565b600067ffffffffffffffff8084111561198757611987611e98565b604051601f8501601f19908116603f011681019082821181831017156119af576119af611e98565b816040528093508581528686860111156119c857600080fd5b858560208301376000602087830101525050509392505050565b80356001600160a01b038116811461048d57600080fd5b600060208284031215611a0a578081fd5b61153e826119e2565b60008060408385031215611a25578081fd5b611a2e836119e2565b9150611a3c602084016119e2565b90509250929050565b600080600060608486031215611a59578081fd5b611a62846119e2565b9250611a70602085016119e2565b9150604084013590509250925092565b60008060008060808587031215611a95578081fd5b611a9e856119e2565b9350611aac602086016119e2565b925060408501359150606085013567ffffffffffffffff811115611ace578182fd5b8501601f81018713611ade578182fd5b611aed8782356020840161196c565b91505092959194509250565b60008060408385031215611b0b578182fd5b611b14836119e2565b915060208301358015158114611b28578182fd5b809150509250929050565b60008060408385031215611b45578182fd5b611b4e836119e2565b946020939093013593505050565b600060208284031215611b6d578081fd5b813561153e81611eae565b600060208284031215611b89578081fd5b815161153e81611eae565b60008060408385031215611ba6578182fd5b823567ffffffffffffffff811115611bbc578283fd5b8301601f81018513611bcc578283fd5b611bdb8582356020840161196c565b95602094909401359450505050565b600060208284031215611bfb578081fd5b5035919050565b60008060408385031215611c14578182fd5b50508035926020909101359150565b60008151808452611c3b816020860160208601611dd6565b601f01601f19169290920160200192915050565b60008351611c61818460208801611dd6565b835190830190611c75818360208801611dd6565b01949350505050565b6001600160a01b0385811682528416602082015260408101839052608060608201819052600090611cb190830184611c23565b9695505050505050565b60006020825261153e6020830184611c23565b600060408252611ce16040830185611c23565b90508260208301529392505050565b60208082526032908201527f4552433732313a207472616e7366657220746f206e6f6e20455243373231526560408201527131b2b4bb32b91034b6b83632b6b2b73a32b960711b606082015260800190565b60208082526031908201527f4552433732313a207472616e736665722063616c6c6572206973206e6f74206f6040820152701ddb995c881b9bdc88185c1c1c9bdd9959607a1b606082015260800190565b60008219821115611da657611da6611e6c565b500190565b600082611dba57611dba611e82565b500490565b600082821015611dd157611dd1611e6c565b500390565b60005b83811015611df1578181015183820152602001611dd9565b83811115610f025750506000910152565b600181811c90821680611e1657607f821691505b60208210811415611e3757634e487b7160e01b600052602260045260246000fd5b50919050565b6000600019821415611e5157611e51611e6c565b5060010190565b600082611e6757611e67611e82565b500690565b634e487b7160e01b600052601160045260246000fd5b634e487b7160e01b600052601260045260246000fd5b634e487b7160e01b600052604160045260246000fd5b6001600160e01b031981168114611ec457600080fd5b5056fea264697066735822122025e98d51f3d000380c7d947c6e09cd2615333400a25d4875a3d8a7bbfc12bd2364736f6c63430008030033",
  "linkReferences": {},
  "deployedLinkReferences": {}
}